:020000040800F2
:10000000D006002001010008BB2F0008A123000832
:10001000B92F0008A502000879360008000000008A
:100020000000000000000000000000002B3000086D
:10003000A702000800000000BD2F00082D300008B6
:100040001B0100081B0100081B0100081B01000820
:100050001B0100081B010008A90200088903000811
:100060008F03000895030008E10300081B01000846
:100070001B0100081B0100081B0100081B010008F0
:100080001B0100081B0100086D0100081B0100088E
:100090001B0100081B0100081B0100081D040008CB
:1000A0001B010008E53000081B0100081B010008C7
:1000B000FD300008BD310008C9310008B123000837
:1000C000A52300081B0100081B0100081B010008F4
:1000D0001B010008E5350008313600083D360008F0
:1000E000550300081B0100081B010008DFF80CD0B5
:1000F00000F02AF8004800470D390008D00600201B
:100100000648804706480047FEE7FEE7FEE7FEE7B1
:10011000FEE7FEE7FEE7FEE7FEE7FEE79D300008AC
:10012000ED000008D2B201E000F8012B491EFBD21D
:1001300070470022F6E710B513460A4604461946F2
:10014000FFF7F0FF204610BD064C074D06E0E068C3
:1001500040F0010394E8070098471034AC42F6D30E
:10016000FFF7C8FFFC3C00081C3D00082DE9F041EA
:1001700027480025056026484C3003682548642739
:10018000264C03602448274A2749D0F800C0244859
:100190004FF461764FF0320E63451AD9A3EB0C038E
:1001A0000B6053600A2B1AD30568C5F30D05056073
:1001B000056845F480451FE00F6003E0322801D256
:1001C000C1F800E008682060BDE8F041174800F081
:1001D000E8B9ACEB03030B6053600A2B05D2256032
:1001E0000168C1F30D010160EEE70568C5F30D0577
:1001F0000560056845F40045056032204343B3FBC4
:10020000F6F090604043323008606428D6D9D3E7D6
:100210000024014028000020140000203404004085
:100220000C0C014040000020240000207800002039
:1002300070B5044600688168C943C9071CD181684C
:1002400021F00101816000F035FC05460FE000BFA0
:1002500000F030FC401B022809D9A06A40F01000D1
:10026000A062E06A40F00100E062012070BD2068F9
:100270008068C043C007EBD0002070BD0848012152
:10028000C1810021017041708170022282828171DE
:10029000C182C17001714171C171017241727047B7
:1002A00050000020FEE77047214810B50068214942
:1002B000001D01230860204914201F4A08701F48B0
:1002C0001F49008808804FF6FF7101EA40011D4870
:1002D00000F01CFF1C4918B3C86800BB1B49086824
:1002E00040F40040086008684FF6FE721040086055
:1002F0000868C0F30E00086012484FF480420160A5
:100300001349416000218160C0E9031241618161AC
:10031000C161016200F066FD08B100F0C1F801E0C2
:100320000120C860BDE81040012000F0C1BA000003
:100330001C280040200000205A0000205E00002001
:1003400066000020A800002040000020005400406B
:10035000A08601000B4810B50168491C01604FF4EC
:10036000806000F0A5FA4FF4006000F0A1FA4FF4AD
:10037000805000F09DFABDE810404FF4005000F0AE
:1003800097BA00001C000020022000F091BA04205F
:1003900000F08EBA0C4910B5402008700B48027866
:1003A0000B4801F0DDFF10B10A49012008700A492D
:1003B0000020087009480168491C0160BDE8104030
:1003C000082000F075BA00000A0000200300002099
:1003D00090020020050000200800002040000020BE
:1003E000094910B54020087008480278084801F013
:1003F000B7FF012108B10748017007480170BDE847
:100400001040102000F054BA0A0000200300002021
:100410009002002005000020080000202DE9F04790
:1004200018480068184E194FDFF86480DFF86490B0
:1004300040064FF0C0054FF001040BD475703A78B8
:100440003146154801F08CFF08B188F800400021C2
:1004500089F800101148806880060AD475703A78CF
:1004600009490D4801F07CFF08B188F8004089F87F
:100470000040202000F01CFABDE8F047402000F0CA
:1004800017BA0000080801400A00002003000020FD
:10049000050000200900002090020020001001400B
:1004A00070477047F8B50024009490F82420254642
:1004B000012A12D0012280F824204A681F23072A2B
:1004C0000DD20668776B521E02EB820293409F4367
:1004D0000B6893401F43776319E00220F8BD06685C
:1004E0000D2A0AD2376BD21F02EB820293409F4340
:1004F0000B6893401F43376309E0F76A0D3A02EB3C
:10050000820293409F430B6893401F43F7620A683F
:10051000072306680A2A0AD3F7680A3A02EB42025E
:1005200093409F438B6893401F43F76008E037690F
:1005300002EB420293409F438B6893401F43376115
:100540000A68102A01D0112A20D1124B02689A425F
:1005500017D193681B0219D4936843F40003936086
:100560000968102912D10C490C4A0968B1FBF2F153
:1005700001EB8101490000E0491E00910029FBD1F7
:1005800004E0816A41F020018162012480F8245056
:100590002046F8BD002401407400002040420F00B6
:1005A000704710B5044600684168890626D5016881
:1005B000890723D5A16AC90603D4A16A41F4007151
:1005C000A1628168C1F34241072910D1217B71B931
:1005D000416821F020014160A06A20F48070A0628F
:1005E000A06AC00403D4A06A40F00100A0622046C3
:1005F000FFF7D6FF21686FF012000860206841689D
:1006000009062ED5016849072BD5A16AC90603D46E
:10061000A16A41F40051A1628168C1F30231072946
:1006200009D04168490515D48168C1F342410729C1
:1006300010D1217B71B9416821F080014160A06A2D
:1006400020F48050A062A06AC00503D4A06A40F0E4
:100650000100A0622046FFF724FF21686FF00C0024
:1006600008602068416849060DD50068C0070AD0B7
:10067000A06A40F48030A062204600F093F8216820
:100680006FF00100086010BD2DE9F0414FF0000748
:1006900004003D467ED0A06A002628B9E66284F8B0
:1006A0002460204600F080F82046FFF7C1FDA16AD3
:1006B000C90600D420B1A06A40F01000A06269E031
:1006C000A16A21F4885141F00201A1626268E169E6
:1006D000237B0A4347EA43010A43A1684FF480772A
:1006E000B94209D0012907D05FF0000194F814C085
:1006F000BCF1010F02D00AE03946F7E7F3B1A36A73
:1007000043F02003A362E36A43F00103E36223683A
:10071000D3F804C02CF4694C4CEA010CC3F804C0B3
:1007200021688B68DFF870C003EA0C0313438B6009
:10073000A168B9420BD0012909D00CE0DFF85CC0F8
:10074000A3690CEB43330B4343F40061DFE7218AD9
:100750000D05A5F580152168CB6A23F470032B43A2
:10076000CB62216889680E4B1940914208D1E6623C
:10077000A16A21F0020141F00101A162BDE8F0810E
:10078000A06A20F0020040F01000A062E06A40F091
:100790000100E0620120F1E7FDF7E1FF00E0FFFF6B
:1007A000FE0E1FFF7047000000B585B000210091CC
:1007B00001910291039100681249884220D11248A8
:1007C000816941F400718161816901F400710491D2
:1007D000816941F0100181618069694600F0100073
:1007E00004901020009003200190084800F06CF85D
:1007F00000221146122000F099FD122000F088FD21
:1008000005B000BD0024014000100240001001406E
:1008100010B590F821100024022903D0042181632F
:1008200001243DE001680A6822F00E020A600168B6
:100830000A6822F001020A601A4A0168914201D155
:10084000012121E0174A1432914201D110211BE00D
:10085000144A2832914201D1891515E0114A3C32DF
:10086000914201D189140FE00E4A5032914202D1D7
:100870004FF4803108E00B4A6432914202D14FF4C8
:10088000801101E04FF08071064A083A5160012161
:1008900080F82110002180F82010416B01B18847B9
:1008A000204610BD0800024090F8210070477047B4
:1008B000044910B50A68024202D00860FFF7F7FF4A
:1008C00010BD0000140401402DE9F84FDFF8B89185
:1008D000002409F1040A0AF1040B23460F270BF147
:1008E000040EC9E00125A5402A40AA427DD1674EE9
:1008F000D1F804C0ACEB0608B44532D014DCBCF12E
:10090000030F3AD009DCBCF1000F2AD0BCF1010F73
:100910001CD0BCF1020F31D11DE0BCF1110F17D07A
:10092000BCF1120F2AD119E0B8F5881F19D006DCE6
:10093000B8F5803F15D0B8F5801F1FD111E0B8F58C
:10094000001F0ED0B8F5041F18D10AE0CB6815E0DF
:10095000CB681B1D12E0CB6808330FE0CB680C336B
:100960000CE08B682BB1012B4FF0080303D04561DD
:1009700004E0042302E0056100E00023FF2A01D81F
:10098000064601E000F104064FEA840501D9A5F10D
:100990002005D6F8008007FA05FC28EA0C0803FABF
:1009A00005F548EA0508C6F800804D68ED0062D5F7
:1009B000374DAE6946F00106AE61AD6924F003061D
:1009C00005F001050095334D06EB050CDCF80850E9
:1009D000A607360F07FA06F825EA0805DFF8B880FB
:1009E000404503D14FF0000817E044E0DFF8AC8049
:1009F000404502D14FF001080FE0DFF8A4804045E8
:100A000002D14FF0020808E0DFF89880404502D19B
:100A10004FF0030801E04FF0040808FA06F848EA2E
:100A20000508CCF808804D68D9F80060ED034D4604
:100A300001D5164300E096432E604D68DAF8006059
:100A4000AD03554601D5164300E096432E604D6830
:100A5000DBF80060ED025D4601D5164300E09643E9
:100A60002E604D68DEF80060AD02754601D5164374
:100A700000E096432E60641C0D682A46E5407FF432
:100A800031AFBDE8F88F00000004014000001110F4
:100A9000001002400000014000080140000C01402D
:100AA00000100140001401400AB1016170470904BF
:100AB000FBE70000014880687047000068000020E4
:100AC000704770472DE9F041044600684169466867
:100AD0000025CF43F9050BD4F143C90508D46FF4C1
:100AE0008071012541612068016841F40041016085
:100AF000B80508D4F043C00505D421686FF4007030
:100B000045F002054861780527D4F043C00524D498
:100B100094F83E30628D94F83D00216B202B08D173
:100B20003AB9212810D029280ED0282801D121290E
:100B30000AD021686FF48060486194F83E0045F067
:100B40000405102804D008E0204601F081FF04E0ED
:100B50002068016841F400710160380508D4F04351
:100B6000C00505D421686FF4006045F008054861B0
:100B7000002D07D0206C284320642046BDE8F041BA
:100B800001F05CBCBDE8F0812DE9F0410268002471
:100B90005168C56A90F83E3090F83D60102B1CD02B
:100BA000402B1AD0036C002B7ED053694FF02805E0
:100BB000DB439F0779D4CF43BF0576D4016C01B1E5
:100BC000946990F83D3000219D430B467FD0C91EAB
:100BD000516180F83C30BDE8F081946953694FF46D
:100BE0002A07DB435FEAC37C4FF02A4604D0BD42AC
:100BF000F1D0B542EFD010E0CD43AD050DD4C16AC0
:100C0000B94201D1012103E0C16AB14201D10821F9
:100C1000C162BDE8F04101F0D3BE1D0716D4CD433B
:100C2000AD0513D4416CC9B21161416B11B9826B2E
:100C3000002AD0D0896A19B9816B896A0029CAD083
:100C40000068416841F400614160C4E79D0706D433
:100C5000CD43AD0503D4BDE8F04101F005BEE4434A
:100C6000526864074FEA025215D4002AB3DB1A0611
:100C700008D4CA43520505D45A0705D5BDE8F0414A
:100C800001F070BD5A07A6D4C9438905A3D4BDE8B5
:100C9000F04101F025BD002A9DDB5A060CD4CA4361
:100CA000520509D45A0702E00FE023E00FE005D512
:100CB000BDE8F04101F0CBBC5A078CD4C94389058B
:100CC00089D4BDE8F04101F059BC94696DE75568DD
:100CD00025F480655560E243540700D501211206D2
:100CE00001D5828900E0028B80F83C3092B2FFF798
:100CF000E8FE70E7DC0606D4CC43A40503D4BDE8C7
:100D0000F04101F0E7BE212E27D0292E25D05C0628
:100D100055D4CC43640552D45B0752D590F83D10AE
:100D2000438D002B91D01269436A1A70426A521C9B
:100D30004262428D521E4285428D002A85D12A2967
:100D4000D7D101684A6822F480624A602221016397
:100D500080F83D5000F082FA3DE71C0623D4CC43D6
:100D6000640520D45B0720D590F83D10438D002BFF
:100D7000BFD0436A1B781361426A521C4262428DA3
:100D8000521E4285428D002AB3D12929B1D1016872
:100D90004A6822F480624A602121016380F83D5054
:100DA00000F05DFA17E75B07A3D4C9438905A0D417
:100DB000418D00299DD0416A097811610AE05B07E5
:100DC00097D4C943890594D4418D002991D01169E4
:100DD000426A1170416A491C4162418D491E418538
:100DE000F9E6704770B504001BD094F83D0000256B
:100DF00020B984F83C50204600F0E8F9242084F81B
:100E00003D002068016821F00101016000F036FC1E
:100E10004D4A6168914201D84C4900E04C498842F2
:100E200001D2012070BD4B492368B0FBF1F15E682F
:100E300026F03F060E435E606368934206D94FF486
:100E4000967359434FF47A73B1FBF3F12368491C4D
:100E50001E6A26F03F06314319626168914210D83C
:100E60004900401EB0FBF1F2521CC2F30B02042AEF
:100E700001D2042022E0B0FBF1F0401CC0F30B00D3
:100E80001CE0A368F3B301EBC10202EB0116421EA2
:100E9000B2FBF6F2521C42F48042120549D093B3E1
:100EA00001EBC10202EB0111401EB0FBF1F0401C4E
:100EB000C0F30B0040F4804040F400402168CA6950
:100EC0004CF6FF739A431043C861D4E90701084305
:100ED00021680A6822F0C00210430860D4E90301C7
:100EE00001432068826848F2FF339A4311438160CE
:100EF000D4E9050108432168CA6822F0FF021043C3
:100F0000C86001E00EE016E02068016841F00101D0
:100F100001602564202084F83D00256384F83E505C
:100F2000002070BD01EB4106421EB2FBF6F2521CDE
:100F3000B3E70120C2E701EB4101401EB0FBF1F035
:100F4000401CC0F30B00B7E7A086010080841E00A0
:100F500000093D0040420F0070470000F0B42549F1
:100F6000002201F10C030D46CE8ACF891C78AD8A90
:100F7000BE4218D10E788E700C705F784F701A7068
:100F80005A70CA82A6420BD0CD821A1D512111700F
:100F90004FF6FF7101EA4501F0BC012300F0B6B83D
:100FA0000E70F0BC7047AE4207D112481230037881
:100FB0008B7102704270CA82F3E7CD780120012D57
:100FC0000AD0CD79012DECD1CA711A705A70202C3B
:100FD0000A720CD04A72E4E7CA701A705A701F2C59
:100FE0000A7101D04A71DCE70A704871D9E748728A
:100FF000D7E7000050000020114A30B4D589D38AC9
:101000004FF6FF7404EA4501AB4201D102230FE021
:10101000958AAB4205D10A4A012304EA45011232FE
:1010200008E0D378012B02D0D279012A05D101231F
:10103000034A0C3230BC00F005B830BC70470000E9
:101040005000002078B50024009490F83D50202DE9
:1010500055D12C4D46F2A8162D68B5FBF6F505EBDB
:10106000C50606EB051500956D1E009506D00568B2
:10107000AD69ED43AD070DD4009DF5E740F8304F65
:10108000202141738473016941F0200101610473DF
:10109000012078BD90F83C50012D30D0012580F81A
:1010A0003C5005682E68F60703D12E6846F001060D
:1010B0002E6005682E6826F400662E60222580F8D2
:1010C0003D50102580F83E50046442624385428DB5
:1010D00002850D4AC262416401680A6842F4806276
:1010E0000A6001680A6842F480720A6080F83C4035
:1010F0000068416841F4E0614160002078BD022051
:1011000078BD0000740000200000FFFF78B50024C7
:10111000009490F83D50202D50D1294D46F2A8164C
:101120002D68B5FBF6F505EBC50606EB0515009534
:101130006D1E009506D00568AD69ED43AD070DD471
:10114000009DF5E740F8304F202141738473016919
:1011500041F0200101610473012078BD90F83C50FA
:10116000012D2BD0012580F83C5005682E68F6072C
:1011700003D12E6846F001062E6005682E6826F41D
:1011800000662E60212580F83D50102580F83E50E5
:10119000046442624385428D02850A4AC262416408
:1011A00001680A6842F480720A6080F83C40006876
:1011B000416841F4E0614160002078BD022078BDC3
:1011C000740000200000FFFF7047704710B586B024
:1011D0000021009101910291039100681B4988420E
:1011E00032D11B4CA06940F00800A061A06969469B
:1011F00000F0080004904FF440700090122001901D
:10120000032003901348FFF75FFB1348416841F048
:10121000E06141F002014160E06940F40010E061EA
:10122000E069002200F40010049011461F2000F035
:101230007DF81F2000F06CF800221146202000F0FD
:1012400075F8202000F064F806B010BD005400408E
:1012500000100240000C0140000001407047704740
:10126000024881680278114481607047680000205C
:10127000074810B5016841F010010160032000F03B
:1012800075F8002000F006F800F024F8002010BDEA
:101290000020024070B50D4D04464FF47A71287855
:1012A000B1FBF0F00A490968B1FBF0F000F053FC23
:1012B00048B9102C07D200222146501E00F036F803
:1012C00000206C6070BD012070BD0000680000202F
:1012D000740000200C4808B5816941F0010181616A
:1012E000816901F001010091C16941F08051C16142
:1012F000C06900F0805000900448416821F0E0612E
:1013000041F00071416008BD001002400000014042
:10131000002809DB00F01F020121914040098000F4
:1013200000F1E020C0F8001170470000F0B40E4B4F
:101330001B680C46C3F30223C3F10705042D00D933
:101340000425191D072901D2002300E0DB1E012618
:1013500006FA05F1491E214099409E40761E16402E
:101360003143F0BC02F089B90CED00E0064900F011
:10137000070208684FF6FF03184040EA0220034ABC
:1013800010430860704700000CED00E00000FA0513
:10139000014901200862704700000E4210B529A4DF
:1013A00001461DCC86B08DE81D002AA02A4C00689D
:1013B00004900020012923D002293AD010291DD100
:1013C00061682268D20119D5C1F38342C9031DF8AF
:1013D000020009D5616804AAC1F34041515C1F4A6B
:1013E000B2FBF1F1484301E01D49484361684902FD
:1013F00004D440005FF00301B0FBF1F006B010BD73
:10140000226AC2F30121012903D1920701D5C80341
:10141000F4E7022905D1626A920702D549F64040F5
:10142000ECE70329EAD121688903E7D54FF224408C
:10143000E4E700F033F96168C1F38131491C4900E8
:10144000DAE7000002030405060708090A0B0C0D81
:101450000E0F1010010200000010024000127A006E
:1014600000093D002DE9F84305460078354CC007DA
:1014700054D0E0690026C00008D4E06940F08050F4
:10148000E061E069012600F0805000902E4801687C
:10149000C90512D40168804641F480710160FFF7EC
:1014A00009FB074605E000BFFFF704FBC01B6428EB
:1014B00023D8D8F80000C005F6D5206A10F4407093
:1014C00021D0A98801F4407181421CD0206A1F49B3
:1014D000012220F440700A6000220A602062C007E6
:1014E00011D0FFF7E7FA074641F2883808E000BF5D
:1014F000FFF7E0FAC11B414502D90320BDE8F8839C
:10150000206A8007F4D5206A696820F44070084397
:1015100020621EB1E06920F08050E06128788007E9
:1015200005D56068A96820F44040084360602878C9
:10153000C00605D56068E96820F480000843606053
:101540000020DBE7001002400070004040044242EF
:101550002DE9F0470F46050061D0434E306800F09A
:101560000700B84209D2306820F0070038433060E5
:10157000306800F00700B84251D128683B4C810721
:1015800012D5400703D5606840F4E06060602878B9
:10159000000703D5606840F4605060606068A96827
:1015A00020F0F000084360602878C00728D0686801
:1015B000012810D02168022810D0890700292EDACE
:1015C000616821F0030101436160FFF773FA80460F
:1015D00041F288390DE021688903EFE78901EDE7E1
:1015E000FFF768FAA0EB0801494502D90320BDE8DE
:1015F000F0876068696800F00C00B0EB810FEFD1F4
:10160000306800F00700B8420BD9306820F00700BE
:1016100038433060306800F00700B84201D0012044
:10162000E5E72878400705D56068E96820F4E060C0
:10163000084360602878000706D56068296920F4AF
:10164000605040EAC100606000F038F86168084A04
:10165000C1F30311515CC8400649086006480068A0
:10166000FFF718FE0020C2E70020024000100240F1
:10167000E43C0008740000206C0000200448054988
:1016800000684968044AC1F30221515CC8407047B0
:101690007400002000100240F43C00080448054992
:1016A00000684968044AC1F3C221515CC8407047D0
:1016B0007400002000100240F43C000812A185B024
:1016C0000FC98DE80F0014A0144A006804905168F7
:1016D000134801F00C03042B10D0082B0ED1C1F3DA
:1016E0008343C9031DF803000AD5516804AAC1F356
:1016F0004041515C0A4A5043B0FBF1F005B07047DD
:1017000008494843FAE700000203040506070809F0
:101710000A0B0C0D0E0F1010010200000010024009
:1017200000127A0000093D002DE9F84F040070D046
:101730002078C04DC00749D06868C0F381000128F7
:1017400007D06868C0F38100022809D16868C00327
:1017500006D52868800339D560680028E7D035E0D1
:101760006068B0F5803F0BD010B1B0F5A02F11D05C
:10177000286820F480302860286820F4802002E067
:10178000286840F480302860606890B1FFF792F9D3
:1017900006460AE0286840F480202860F0E700BF91
:1017A000FFF788F9801B642873D828688003F7D571
:1017B0000CE0FFF77FF9064605E000BFFFF77AF976
:1017C000801B6428F0D828688003F7D420789A4ECC
:1017D00080074FF001094FF0000839D5686810F014
:1017E0000C0F07D06868C0F38100022809D168682F
:1017F000C00306D42868800714D52069012808D1C1
:1018000010E02069B0B1C6F80090FFF753F9074621
:1018100005E00AE1FFF74EF9C01B0228C4D828688A
:101820008007F7D52868616920F0F80040EAC10018
:1018300028600DE0C6F80080FFF73CF9074604E099
:10184000FFF738F9C01B022823D828688007F7D48F
:10185000207800072CD57948A169D9B1C0F800904B
:10186000FFF728F9074604E0FFF724F9C01B022818
:101870000FD8686A8007F7D571484FF4FA510068AD
:10188000B0FBF1F0009000BF0098411E0091FAD229
:101890000EE080E0C0F80080FFF70CF9074604E096
:1018A000FFF708F9C01B022875D8686A8007F7D4CB
:1018B0002078400760D5E8690027C00008D4E869AF
:1018C00040F08050E861E869012700F08050009006
:1018D0005C480168C90513D40168834641F48071EE
:1018E0000160FFF7E7F8824606E000BFFFF7E2F885
:1018F000A0EB0A0064284ED8DBF80000C005F5D53F
:10190000E06801280AD008B1052813D0286A20F021
:1019100001002862286A20F0040002E0286A40F0F2
:1019200001002862E06841F2883B98B1FFF7C2F8F5
:1019300082460BE0286A40F004002862EEE700BF10
:10194000FFF7B8F8A0EB0A0159455AD8286A800772
:10195000F6D50CE0FFF7AEF8824605E0FFF7AAF8EF
:10196000A0EB0A0159454CD8286A8007F6D41FB16C
:10197000E86920F08050E861E06988B36968C1F3E4
:101980008101022944D00228C6F8608004D0FFF704
:1019900091F8044638E034E0FFF78CF8074604E09D
:1019A000FFF788F8C01B02282BD828688001F7D4DD
:1019B000206AB0F5803F05D16868A16820F4003046
:1019C00008436860D4E908010843696821F4741188
:1019D00008436860C6F86090FFF76CF8044606E0BC
:1019E00025E000BFFFF766F8001B022809D8286829
:1019F0008001F7D51BE000BFFFF75CF8001B022851
:101A000002D90320BDE8F88F28688001F4D40EE0E5
:101A10000128F7D06868226A00F48031914204D12D
:101A2000616A00F47010884201D00120EAE70020CA
:101A3000E8E70000001002400000424280044242F9
:101A4000740000200070004070B5040003D0607C7A
:101A5000002610B105E0012070BD2674204600F07C
:101A600043F802206074204600F058F8042578BB43
:101A7000204601F0A4FA58BB2068416821F0070114
:101A80004160A06820B11748016821F001010160A0
:101A90001448001F0168A26821F4607111430160BD
:101AA0006068411C04D10120FFF778FC80B1401E22
:101AB00021688A6822F00F0242EA10428A60216897
:101AC000CA6860F30F02CA60204601F093FA08B1B9
:101AD0006574C0E7E67301206073A0736074002032
:101AE00070BD0000306C004008B5006808498842AD
:101AF0000DD1FFF74DFC0748C16941F00061C1619C
:101B0000C069054900F0006000900120086008BD30
:101B100000280040001002403C04424270B504001E
:101B20000AD02068416821F008014160FEF7C2FF39
:101B300005464FF47A7608E0012070BDFEF7BAFF43
:101B4000401BB04201D9032070BD206840680007E7
:101B5000F4D5002070BD10B5401EB0F1807F01D3D8
:101B6000012010BD4FF0E02460610F21601701F0EB
:101B700084FD0020A06107202061002010BD704777
:101B8000704770B590F83C20012A19D0012400F864
:101B90003C4F0222427050F83C3C5A689D6822F04B
:101BA00070060A684968324325F0800529435A6067
:101BB00050F83C2C9160447000210170084670BDC3
:101BC000022070BD10B5040003D094F83D0010B1A0
:101BD00007E0012010BD002084F83C00204600F002
:101BE0000DF8022084F83D00211D206801F0FEFA66
:101BF000012084F83D00002010BD000008B5274AF0
:101C00000168274891420ED1816941F400618161E8
:101C10008069002200F40060009011461920FFF74F
:101C200085FB192034E0B1F1804F11D01D4A91425B
:101C30001DD1C16941F00201C161C069002200F0FB
:101C40000200009011461D20FFF770FB1D201FE0D1
:101C5000C16941F00101C161C069002200F00100C9
:101C6000009011461C20FFF761FB1C2010E00E4A7B
:101C7000914211D1C16941F00401C161C0690022E2
:101C800000F00400009011461E20FFF74FFB1E20BD
:101C9000BDE80840FFF73CBB08BD0000002C014038
:101CA00000100240000400400008004070B50446E7
:101CB00090F83C00012817D0012584F83C50022000
:101CC00084F83D002068826822F0770222F47F4287
:101CD00082600868502830D00DDC20284DD005DC0B
:101CE00098B310283BD148E0022070BD302844D082
:101CF000402834D139E0602828D0702806D0B0F5CB
:101D0000805F2CD0B0F5005F29D10AE0CB68D1E923
:101D10000121206801F0A0FA2068816841F0770174
:101D200009E0CB68D1E90121206801F095FA20682B
:101D3000816841F48041816011E0CA684968206887
:101D400001F03EFB5021206807E016E0CA684968B0
:101D5000206801F046FB6021206801F087FA84F8D2
:101D60003D50002084F83C0070BDCA684968206876
:101D700001F026FB40212068EFE72268014610466B
:101D8000EBE7704770B50446006801694FF0000545
:101D9000C943890715D4C168C943890711D4E91E0D
:101DA000016101202077206880698007204602D0E9
:101DB000FFF7E7FF04E000F0CBF8204600F04DF914
:101DC000257720680169C943490717D4C168C94309
:101DD000490713D46FF004010161022020772068C5
:101DE000806910F4407F204602D0FFF7CAFF04E06C
:101DF00000F0AEF8204600F030F925772068016940
:101E0000C943090716D4C168C943090712D46FF042
:101E100008010161042020772068C06980072046FE
:101E200002D0FFF7AEFF04E000F092F8204600F089
:101E300014F9257720680169C943C90617D4C16818
:101E4000C943C90613D46FF010010161082020773F
:101E50002068C06910F4407F204602D0FFF791FF50
:101E600004E000F075F8204600F0F7F825772068C8
:101E70000169C943C90708D1C168C943C90704D169
:101E8000891E0161204600F0E9F820680169C94314
:101E9000090609D4C168C943090605D46FF0800159
:101EA00001612046FFF76BFE20680169C9434906BE
:101EB00009D4C168C943490605D46FF040010161E6
:101EC000204600F0CCF820680169C94389060BD48C
:101ED000C168C943890607D46FF02001016120461B
:101EE000BDE87040FFF74CBE70BD000000B585B086
:101EF00000210091019102910391006810498842EC
:101F00001BD11048816941F01001816180696946E7
:101F100000F0100004904FF47070009002200190C7
:101F200003900948FEF7D0FC0848416821F440615D
:101F300041F0E06141F44061416005B000BD000046
:101F40000004004000100240001001400000014069
:101F5000704770B5044690F83C000D4601280DD03E
:101F6000012684F83C60022084F83D0042B1042A36
:101F700018D0082A2AD00C2A4DD139E0022070BD91
:101F8000206801F07BF92068816941F008018161D6
:101F90002068816921F004018161206881692A69D2
:101FA000114311E0206801F091F92068816941F442
:101FB000006181612068816921F48061816120680C
:101FC00081692A6941EA0221816124E0206801F0E7
:101FD000A9F92068C16941F00801C1612068C1699F
:101FE00021F00401C1612068C1692A69114311E02F
:101FF000206801F0C3F92068C16941F40061C16142
:102000002068C16921F48061C1612068C1692A69C1
:1020100041EA0221C16184F83D60002084F83C005F
:1020200070BD10B5040003D094F83D0010B107E076
:10203000012010BD002084F83C00204600F00CF880
:10204000022084F83D00211D206801F0CFF8012016
:1020500084F83D00002010BD7047704770477047FE
:102060007047000070B5026804461068D168536973
:1020700010F00F0F50D003F0010501F490763543B6
:102080005DD0C20705D0CA0503D5E26B42F001025C
:10209000E263420705D5DA0703D0E26B42F00202A1
:1020A000E263820705D5DA0703D0E26B42F004024F
:1020B000E263020705D5DA0703D0E26B42F00802BB
:1020C000E263E26B002A33D0800604D5880602D58D
:1020D000204601F0AEF920684069E16BC0F3801042
:1020E000090700D428B3204601F095F9206841691A
:1020F00049061AD5416921F040014161606BA0B1E8
:102100001B494163606BFEF783FB002810D0606BB6
:10211000416BBDE870400847830610D58B060ED58D
:102120002046BDE8704001F084B92046FFF798FFD3
:1021300070BD2046FFF794FF0020E06370BD0306EA
:1021400006D50B0604D52046BDE8704001F018BA4C
:102150004006F3D54806F1D5D168204621F040016C
:10216000D160202184F8391000F019F970BD000009
:102170000734000870B5040004D094F83900002535
:1021800010B106E0012070BD84F83850204600F000
:1021900023F8242084F839002068C16821F4005114
:1021A000C160204601F090F92068016921F4904156
:1021B00001612068416921F02A0141612068C168FC
:1021C00041F40051C160E563202084F8390084F8AF
:1021D0003A00002070BD000070B586B00024009465
:1021E000019402940394424E026842490220032360
:1021F000414DB2422DD18A6942F480428A618A6996
:1022000002F4804204928A6942F008028A61896974
:10221000039301F0080104914021CDE900106946C3
:102220002846FEF751FB8020CDE900046946284688
:102230000294FEF749FB3148416841F0E06141F00A
:1022400004014160002211462520FFF76FF8252088
:1022500020E02B4EB24221D1CA6942F40032CA6159
:10226000CA6902F4003204928A6942F004028A6167
:102270008969039001F0040104910C21CDE900105B
:1022800069462048FEF720FB002211462620FFF772
:102290004DF82620FFF73CF806B070BD1A4EB2424A
:1022A000FAD1CA6942F48022CA61CA6902F4802262
:1022B00004928A6942F008028A618969039301F0F5
:1022C000080104913115CDE9001069462846FEF752
:1022D000FBFAF014CDE90004694628460294FEF7A3
:1022E000F3FA002211462720FFF720F82720D1E734
:1022F0000038014000100240000C01400000014085
:1023000000440040000801400048004090F83A3086
:10231000202B22D1F9B1F2B190F83830012B1CD02A
:1023200081628285C2850021C163222280F83A2021
:1023300080F838100168CA6842F48072CA60016887
:102340004A6942F001024A610068C16841F0200117
:10235000C16000207047012070470220704770471D
:1023600090F83930202B18D1A9B1A2B190F83830AB
:10237000012B12D001628284C2840021C163212218
:1023800080F8392080F838100068C16841F0800179
:10239000C1600020704701207047022070477047DD
:1023A000FEE700000148FEF78DBB0000A8000020FA
:1023B0000148FEF7E9BB0000A800002010B5406A04
:1023C00090F83D30426B00219162826B916202680D
:1023D000146824F4806414604185426B5163826BFD
:1023E00051630268146824F00104146090F83D20E1
:1023F0002024602A0BD0282232EA03030FD080F871
:102400003D4080F83E1000BFFEF7EBFC10BD80F8A9
:102410003D4080F83E100164FEF752FB10BD03689A
:102420001C6844F001041C6003681C6844F4806468
:102430001C60016380F83D20E6E7000070B50446AB
:1024400090F83D0094F83E10102906D1222804D1BE
:1024500021680A6822F400620A60282131EA000239
:102460004FF000054FF0200626D021684968090585
:1024700003D4602801D084F83D60256384F83E5081
:1024800020684168090537D5416821F40061416041
:10249000606B384990F82120012A11D04163606BAC
:1024A000FEF7B6F938B32068016821F00101016038
:1024B00084F83D60606B1CE0256384F83D10DFE725
:1024C000A06B4163A06BFEF7A3F9A0B1206841693E
:1024D000C943490605D40069616A0870606A401CF6
:1024E00060622068016821F00101016084F83D60AC
:1024F000A06B416B884710E094F83D10602923D011
:102500004169C943490605D40069616A0870606A77
:10251000401C60622046FEF764FC94F83D00216C8C
:10252000490710D528280ED12068416821F4E061C0
:1025300041601148E062256384F83D6084F83E50B4
:102540002046FEF709FD70BD84F83D6025644169B1
:10255000C943490605D40069616A0870606A401C75
:1025600060622068016821F0010101602046FEF7E9
:10257000A7FAD2E7BD2300080000FFFF10B5C26A2A
:10258000438D0168042B06D0438D032B08D0438D67
:10259000022B1DD012E04A6822F480624A600CE0EF
:1025A0004B6823F480634B60042A06D0022A04D0CF
:1025B00001680A6822F480620A6001680969426A57
:1025C0001170416A491C4162418D491E418510BD0F
:1025D000012A30D0102A2ED0042A30D0022A2ED040
:1025E0000A6842F400720A6001680969426A11705F
:1025F000416A491C4162428D521E4285026812693D
:102600000A70416A491C4162418D491E4185016839
:102610004A6822F440724A60202180F83D1090F808
:102620003E200021402A80F83E100CD01221016388
:10263000FEF794FC10BD0A6822F48062D3E70A68B2
:1026400042F48062CFE70163FEF7BEFD10BD10B516
:1026500090F83D10222914D1418D032912D9016827
:102660000969426A1170416A491C4162418D491EE3
:102670004185418D032904D10068416821F48061BE
:10268000416010BDC26A022AFBD0012901D0002995
:10269000F7D101680A6822F480620A6001684A681A
:1026A00022F4E0624A6001680969426A1170416A75
:1026B000491C4162418D491E4185202180F83D1011
:1026C00090F83E200021402A80F83E1004D01221CC
:1026D0000163FEF743FC10BD0163FEF775FD10BDFD
:1026E00010B5C26A90F83D1021290BD1418D51B12E
:1026F000416A026809781161416A491C4162418D51
:10270000491E418510BD20230021082A13D0202A0C
:1027100011D012F5803F0ED00268546824F4E064B2
:1027200054601122026380F83E1080F83D3000BFF3
:10273000FEF762FC10BD0268546824F4E064546043
:102740000268146844F400741460016380F83D303A
:1027500090F83E2080F83E10402AE9D1FEF735FD82
:1027600010BD000010B590F83D1090F83E30C26AE0
:10277000048D64B1212903D0402B21D122291FD1FE
:10278000418DA1B390F83E10402937D046E0212971
:10279000F2D120230021082A13D0202A11D012F5CB
:1027A000803F0ED00268546824F4E0645460112223
:1027B000026380F83E1080F83D3000BFFEF71CFC3D
:1027C00010BD0268546824F4E06454600268146820
:1027D00044F400741460016380F83D3090F83E20AA
:1027E00080F83E10402AE9D1FEF7EFFC10BDFFE76C
:1027F0000068416821F480614160F7E7016DC1B173
:10280000016D012922D0016D0229EFD190F83D1010
:10281000222923D090F83D102129E7D1416A02688E
:1028200009781161416A491C4162418D491E418507
:10283000DCE7C16C0129816C02D0C1F3072107E0FC
:102840000268C9B21161016D891C05E0816CC9B2D1
:1028500002681161016D491C0165C7E700680168E4
:1028600041F480710160C1E778B590F83E50C26ACA
:10287000046B90F83D6000230168222E73D1066D31
:102880000EB9402D6FD0056D1DB90569B5F5404FE6
:102890001BD0458D95B3468D484D012E20D0448DDB
:1028A000022C4DD00C6844F480640C6001684C68C4
:1028B000240579D5AA4273D0012A71D0082A6FD095
:1028C000102A6DD0202A6BD06EE04A698A69009286
:1028D0000A6842F480720A60016D491C016578BD86
:1028E000AA4214D10A6822F480620A6001684A6828
:1028F000120504D50A6822F4806217E0FFE74A69EE
:102900008A6900920A6842F400720A6050E0082A5C
:1029100010D0202A0ED0122C0AD0042A03D0022A6A
:1029200001D0102AE6D10A6842F480620A603BE0D6
:10293000012ADFD00A6822F480620A600168DEE7BB
:10294000042A11D0022A0FD0102A0DD00C6844F4AA
:1029500000640C6001684C698C6900940C6824F474
:1029600080640C6008E025E00C6844F480640C602E
:1029700001684C698969009101684C68240517D584
:10298000AA4207D0012A05D0082A03D0102A01D074
:10299000202A0DD14A6842F480524A6008E0FFE7DD
:1029A0004A6842F480524A6001684A698969009124
:1029B000036578BD48698869009078BD0000FFFF15
:1029C00090F83E10402910D00169B1F5804F19D020
:1029D000016DB1B3016D012910D1416C5FF0F102BD
:1029E00001F4407142EAD11106E0016D0029416C09
:1029F00005D0C9B241F0010100680161704701F0E2
:102A0000FE01F9E790F83D102129416C07D0C9B2C9
:102A100041F0010102681161416B31B902E001F03E
:102A2000FE01F7E7826B002AE8D0896A19B9816B49
:102A3000896A0029E2D00068416841F40061416080
:102A40007047FFE7416CF02201F44071CAE70000D3
:102A50002DE9F04190F83D40C26A002320261C4F2A
:102A600001686FF48065082A01D0202A01D1282C42
:102A700004D0212C16D04D61BDE8F081C7624A68B0
:102A800022F4E0624A6001684D6101680A6822F43C
:102A900080620A60036380F83D6080F83E30FEF794
:102AA0005BFAE9E7C7622122026380F83D6080F8A3
:102AB0003E304A6822F4E0624A6001684D61016874
:102AC0000A6822F480620A60FEF7C9FBD4E70000BE
:102AD0000000FFFFF8B590F83D60044600684168CB
:102AE00021F4E0614160206800254169009101689E
:102AF00041F0010101602068016821F480610160FA
:102B000020684168090520D5474F222E48D02A2E3B
:102B100046D0616B096849686185618D19B1216C86
:102B200041F004012164416821F400614160606B5F
:102B3000FDF7BAFE012808D0606B4763606BFDF7B4
:102B400067FE10B1606B416B8847608D08B32068E9
:102B50004169C943490708D40069616A0870606A1D
:102B6000401C6062608D401E608520684169C943D9
:102B7000490608D40069616A0870606A401C606296
:102B8000608D401E6085608D18B1206C40F004009F
:102B90002064206C00B32046BDE8F840FFF74EBC2F
:102BA000A16B096849686185618D19B1216C41F09B
:102BB00004012164416821F400614160A06BFDF7CC
:102BC00073FE0128C1D0A06B4763A06BFDF720FE08
:102BD0000028BAD0A06BB6E72A2E06D1256328209C
:102BE00084F83D002046FEF739FB94F83D10202084
:102BF00028290DD0216B222901D0222E07D125634F
:102C000084F83D0084F83E502046FEF727FBF8BDCF
:102C10000649E162256384F83D0084F83E50204671
:102C2000FEF79AF9F8BD0000BD2300080000FFFF81
:102C30003EB500240D480094019402940A49846032
:102C4000016004730475012505614FF4602144603F
:102C5000C161FDF719FD0E20CDE90005694602941A
:102C60000248FDF71FFC3EBD002401407800002013
:102C70002DE9F04F85B0002463480094019402943C
:102C80000394816941F010018161816901F01001B3
:102C90000491816941F020018161816901F0200185
:102CA0000491816941F004018161816901F00401AD
:102CB0000491816941F0080181618069DFF84CA1CC
:102CC00000F008004FF4687704900022394650461F
:102CD000FDF7EAFEDFF838B14DF20409002249465B
:102CE0005846FDF7E1FE4FF4E058002241464948BE
:102CF000FDF7DAFE484D42F20400CDE900056946D1
:102D000002944448FDF7E0FD444E2820CDE900063A
:102D1000694602943F48FDF7D7FD5020CDE90006F3
:102D2000694602945046FDF7CFFD0126CDE90076B5
:102D30000227CDE9024769465046FDF7C5FD03204D
:102D4000CDE90005694602945846FDF7BDFDCDF872
:102D500000900397CDE9016469465846FDF7B4FD3C
:102D60007003CDE90004694658460294FDF7ACFDB6
:102D7000CDF80080CDE9015469465046FDF7A4FD29
:102D8000CDF800800397CDE9016469462148FDF73D
:102D90009BFD002211460620FEF7C8FA0620FEF72A
:102DA000B7FA002211460720FEF7C0FA0720FEF707
:102DB000AFFA002211460820FEF7B8FA0820FEF705
:102DC000A7FA002211460920FEF7B0FA0920FEF703
:102DD0009FFA002211460A20FEF7A8FA0A20FEF701
:102DE00097FA002211461720FEF7A0FA1720FEF7E7
:102DF0008FFA002211462820FEF798FA2820FEF7C5
:102E000087FA05B0BDE8F08F0010024000080140CD
:102E1000000C0140001001400000111000002110C2
:102E200010B586B0002412480094019402940394D3
:102E300004940E490594016047F6FF41C0E901146E
:102E40003121C0E9031444618461FEF7BBFE4FF4F5
:102E50008050009069460648FEF728FF049404A9B4
:102E600003480594FEF78DFE06B010BD002C01400E
:102E70001001002010B586B0002411480094019480
:102E80000294039404944FF08041059401604FF63E
:102E9000FF11C0E901143121C0E903148461FEF778
:102EA00091FE4FF48050009069460548FEF7FEFE03
:102EB000049404A902480594FEF763FE06B010BD11
:102EC0005001002010B58EB0002407940894099496
:102ED0000A940B941C2168460C94FDF72AF92048AB
:102EE0001E4901602721C0E901146421C0E90314CF
:102EF0008461FEF767FE4FF48050079007A91848D9
:102F0000FEF7D4FE1648FFF78CF80B940BA9144873
:102F10000C94FEF736FE60200090B220CDE901044B
:102F2000002269460E480494FFF713F8042269460C
:102F30000B480194FFF70DF83120019008226946F3
:102F40000748FFF706F80C22694605480194FFF789
:102F500000F80348FEF7CAFF0EB010BD00040040A1
:102F60009001002010B586B000241248009401940E
:102F70000294039404940E49059401604FF6FF11E6
:102F8000C0E901143121C0E903148461FEF71AFE7F
:102F90004FF48050009069460648FEF787FE04947F
:102FA00004A904480594FEF7ECFD06B010BD00002E
:102FB00000080040D0010020FEE77047704770B560
:102FC0000446FDF777FD05464FF47A7606E0FDF7F7
:102FD00071FD401BB04201D9032070BD20684068DC
:102FE0008006F4D52068416841F01001416000205E
:102FF00070BD000070B504460068416821F0100102
:103000004160FDF757FD05464FF47A7607E000BFB3
:10301000FDF750FD401BB04201D9032070BD206870
:1030200040688006F4D5002070BD7047FEF718B9DF
:1030300030B593B028216846FDF77BF814210AA823
:10304000FDF777F800240F940620009001201294D9
:1030500003900490102005904FF46010CDE90840D3
:1030600011940225109407956846FEF75DFB0F202A
:10307000CDE90A056802CDE90C404FF4A0600E903E
:1030800002210AA8FEF764FA03200F90E801CDE9B7
:1030900010040FA8FEF7E6F913B030BD0D48016823
:1030A00041F00101016041680B4A11404160016833
:1030B0000A4A11400160016821F4802101604168E1
:1030C00021F4FE0141604FF41F0181600449C003F7
:1030D00008607047001002400000FFF8FFFFF6FE96
:1030E00008ED00E00348016841F001010160024879
:1030F000FEF748BE082401401001002070B5224BA5
:1031000019682248002402682148914203D2214ACA
:10311000022111700470204964220968514340F66D
:10312000AC52B1FBF2F51D490D601D4902780878DB
:10313000AA4207D94A2801D2401C0870C0B2904266
:1031400007D807E0192801D9401E0870C0B2904284
:1031500000D20A7008781349086018681249096893
:10316000401A12490228086008D900F0AFFD104843
:1031700004701048016841F020010160BDE8704012
:103180000D48FEF7FFBD00001C2800402000002075
:10319000010000200700002010000020180000207F
:1031A00002000020380400403000002034000020DD
:1031B0002E0000200C080140500100200148FEF7BD
:1031C000E1BD0000900100200548064A016801EBBE
:1031D00041111160002101600348FEF7D3BD0000DA
:1031E0001C00002010000020D0010020F0B5026873
:1031F000164B174C174D4FF08047984205D0B842F8
:1032000003D0A04201D0A84203D122F070064A6840
:103210003243984205D0B84203D0A04201D0A84220
:1032200003D122F44074CA6822434C6922F0800220
:10323000224302608A68C2620A688262984201D1AF
:103240000969016301214161F0BD0000002C0140CA
:10325000000400400008004010B5846842EA0322E0
:1032600024F47F440A432243826010BD826822F026
:1032700070020A4342F007018160704730B5026A6C
:1032800022F001020262026A4368846924F0730535
:103290000C682C4322F002058A682A430A4DA84292
:1032A0000BD122F00805CA6823F440732A434D6904
:1032B00022F004021D438B692B43436084614968FB
:1032C0004163026230BD0000002C014030B5026A4B
:1032D00022F010020262026A436884690D6824F4D5
:1032E000E64444EA05248D6822F0200242EA0512F1
:1032F0000B4DA8420ED1CD6822F0800242EA0512A1
:103300004D6923F4406343EA85038D6922F040024E
:1033100043EA85034360846149688163026230BD8A
:10332000002C014030B5026A22F480720262036A06
:103330004268C46923F4007324F073050C682C43BD
:103340008D6843EA05230C4DA8420ED1CD6823F4C5
:10335000006343EA05234D6922F4405242EA051214
:103360008D6923F4806342EA05124260C4614968B2
:10337000C163036230BD0000002C014030B5026A19
:1033800022F480520262046A4268C3690D6823F421
:10339000E64343EA05238D6824F4005444EA0534E7
:1033A000064DA84204D14D6922F4804242EA8512BA
:1033B0004260C36149680164046230BD002C014071
:1033C00010B5036A046A24F001040462846924F0DD
:1033D000F00444EA021423F00A020A438461026200
:1033E00010BD10B5036A23F0100303628369046AF9
:1033F00023F4704343EA023224F0A00343EA0111AC
:103400008261016210BD10B5406A0021C185C1848E
:10341000FEF726FE10BD0168CA6822F49072CA60E9
:1034200001684A6922F001024A61202180F83A10BD
:10343000704710B590F83A10222901D0022010BD33
:103440008168B1F5805F11D00169002901681FD042
:10345000496801F07F03816A4A1C82620B70C18D4A
:10346000491E0904090CC18518D02BE00269816A44
:10347000002A0268526805D0D2B20A80816A491CCB
:103480008162ECE7C2F308020A80816A891CF7E7CF
:103490004A68816A4B1C83620A70E0E70168CA6867
:1034A00022F02002CA600168CA6822F48072CA60F1
:1034B00001684A6922F001024A61202180F83A102D
:1034C000FEF74DFF002010BD2DE9F04104460068D5
:1034D0000169E26821F44051114301612169A0684A
:1034E0000843616908432168CA6841F20C639A4342
:1034F0000243CA6020684169A26921F44071114306
:1035000041611E49206864253226884202D1FEF7B7
:10351000C5F801E0FEF7B2F800EBC00101EB0011C5
:1035200060686FF018078000B1FBF0F2B2FBF5F2B3
:10353000B1FBF0F37A4303EB8202B1FBF0F306EB4D
:103540000212B2FBF5F2B3FBF5F302F0F00202EB6C
:103550000312B1FBF0F3B1FBF0F0B0FBF5F07843F0
:1035600003EB800006EB0010B0FBF5F0216800F0E3
:103570000F0010448860BDE8F08100000038014071
:1035800090F83910212901D0022070478168B1F5E7
:10359000805F016A0BD04A1C0262026809785160A0
:1035A000C18C491E0904090CC1840ED017E009889A
:1035B0000268C1F30801516001690029016A02D063
:1035C000491C0162ECE7891CFBE70168CA6822F02C
:1035D0008002CA600068C16841F04001C1600020FB
:1035E0007047000070B50E48FEF73CFD0C4C0025FE
:1035F0000C4EA08D062809D1E08D38B906220A4963
:103600000A48FEF7ADFEA58501203070A08C012888
:1036100004D1E08C002801D1A584357070BD000074
:10362000100200202D000020380000205002002051
:103630000148FEF717BD0000500200200A4810B5EF
:10364000C08D58B9094C2078012807D1084809498C
:1036500002780548FEF784FE00202070BDE8104087
:103660000148FEF7FFBC000090020020050000208A
:10367000030000200A000020FEE70907090E0028C9
:1036800004DB00F1E02080F80014704700F00F0028
:1036900000F1E02080F8141D704702E008C8121FF6
:1036A00008C1002AFAD170477047002001E001C12B
:1036B000121F002AFBD170472DE9F0473221484301
:1036C000284CC60920464D07827990F807C0D4F8E7
:1036D0001080002724490223807819364FF6FE799E
:1036E0004FF0640AB8F1000F04D0A8B1944529D175
:1036F000667022E090B19445FAD06770A7700F60B1
:10370000286800EA09002860C5F82CA0E3716F6200
:10371000286840F00100286000200FE0E2714FF4BB
:1037200000711248FDF7C0F966701920A0703120B1
:10373000E862286840F0010028600120BDE8F047F9
:1037400000F0AEB867700F60E371002000F0A8F8D9
:10375000286800EA09002860C5F82CA06F620020E4
:10376000BDE8F08700000020380400400008014058
:1037700010B50A4C00200A496070A0700860022051
:10378000E0712078012802D1002000F089F820693A
:1037900010B1002000F084F8012010BD00000020CE
:1037A0003804004010B50B49842803D900228A71DF
:1037B0007F3805E0702808D201228A71C0F17F00AD
:1037C000BDE81040C0B2FFF777BFFFF7D1FF002080
:1037D00010BD000000000020FA2800D9FA204FF4A4
:1037E00061714843FA21B0FBF1F0054900F2A46091
:1037F00048610448016841F00101016001207047FF
:103800000000002008240140024940F6660048619B
:10381000704700000000002010B5162801D00020DD
:1038200010BD094A0223A2F10A0410705170012050
:10383000E071E0894FF6FF7101EA40010348FDF7AE
:1038400065FC607A10BD00005A000020A80000202E
:1038500070B510490868104A460610484FF0000538
:103860004FF001034FF0020401D4457205E0966861
:10387000B60601D4437200E044720968C90601D457
:10388000037270BD9168090701D4057270BD04729E
:1038900070BD000008080140001001400000002039
:1038A00070B50546024680211548FDF7FDF8FFF783
:1038B000CFFF144C4020C0222571237A012604F149
:1038C0000A014DB1012B00D07F200870607A0128D9
:1038D0000AD08020487008E00BB10E7000E008703C
:1038E000607A08B1FF20F5E74A7006490222E270CB
:1038F0000A310548FEF734FD00B16671012070BD44
:103900000008014000000020900200207A491F209A
:103910000860794808380068774940F01000083995
:103920000860C813744908600720086072480838A6
:103930000068714900F0EF0008390860FDF798FC55
:10394000FFF776FBFFF794F96D496C480024086097
:103950006C48486008468460C4604FF48040086149
:10396000084644618461C4610462FDF73BFA67481C
:1039700065490C2501604FF41651C0E90114C4607B
:10398000C0E904458461C461FEF7F4FB5F48604907
:1039900040304FF4E1360160C0E90164C460C0E921
:1039A00004458461C461FEF7E5FB584859498030FD
:1039B0000160C0E90164C460C0E904458461C46178
:1039C000FEF7D8FBFFF734F94D484B4954300C391A
:1039D0000160611E41604FF480718160FEF734F830
:1039E000FFF71EFAFFF76EFAFFF744FAFFF7BAFA8D
:1039F0004948016841F00101016047480C30016805
:103A000041F001010160016841F0100101600168AD
:103A100041F480710160016841F4805101603E48C9
:103A20008122143802603C490120083908603A4973
:103A300020310C60091D0C60374B202128331960A0
:103A40001B1D196081074B6943F001034B610B6A31
:103A500043F001030B620A60C8604C632F490860A1
:103A60002E490C3108602E4908602D490C31086040
:103A7000FFF7CAFE2B48016841F020010160001DDC
:103A8000016841F001010160016841F0010101603C
:103A9000FCF7F4FBFFF7B8FE2348244D0122008811
:103AA00091020009A8702248FCF7FEFF1348183065
:103AB0000068204C00F0C2F8D0B1681C00F094F807
:103AC0002078401C207000F06DF82070287900F0FC
:103AD0006FF808B1FB202070E9782879FFF79CFE89
:103AE00008B1FC2020700121124800F0DBF8E1E76A
:103AF000114904200860DDE70C2800400054004014
:103B0000A8000020A086010000380140100200201B
:103B100000440040004800401404004000080040F9
:103B2000002C014004240140140000203800002033
:103B3000001001402F000020240000202DE9F0415A
:103B40001548FC22802103780625144E144FA0F15D
:103B50000904FE2B02D14379FF2B17D0227041704C
:103B600081700D480121093800F09CF8F58501228B
:103B700080213846FCF798FF042020700648012178
:103B8000093800F08FF80020BDE8F08102490120DB
:103B90000C3908700220F7E73800002010020020DE
:103BA00000080140014800787047000050000020E4
:103BB00010B5012801D0002010BD09491520A1F140
:103BC0000A0408700120E070E0894FF6FF7101EAF5
:103BD00040010123024A0348FDF798FA607910BDBD
:103BE0005A000020A800002010B50246407806497F
:103BF000C0F1FA00C860C0B2FFF7EEFD1078BDE872
:103C00001040FFF7CFBD00000000002010B50622D5
:103C100008490948FEF77AFB38B9064901200C39F2
:103C2000887004480078FE2801D0002010BD0120D3
:103C300010BD0000380000201002002070B5164CA6
:103C40006078012802D0207820B115E0BDE87040EE
:103C5000FFF774BFA078114E114D78B130686168DC
:103C6000401AA060022807D900F030F80020A070A8
:103C7000286840F020002860002070BDFFF7C6FFD4
:103C80000028FAD03068606028684FF6DF7108407D
:103C90002860012070BD00002C0000201C2800407E
:103CA0000C0801408AB210B501460648FEF758FBE1
:103CB00000284FF0000003D10349087088700120EC
:103CC00010BD0000100200202C000020044910B597
:103CD00002200870FFF74CFDFFF796FD002010BD95
:103CE00004000020000000000000000001020304A6
:103CF0000607080900000000010203041C3D00083B
:103D000000000020780000009A360008943D00086A
:103D10007800002058060000AA36000801000000C4
:103D20000200000000000000000000000000000091
:103D30000000000000000000000000000000000083
:103D40000000000000000000000000000000000073
:103D50000000000000000000000000000000000063
:103D60000000000000000000000000000000000053
:103D70000000000000000000000000000000000043
:103D80000000000001000000100000000000000022
:043D90000024F40017
:04000005080000ED02
:00000001FF
